{
  "_format": "hh-sol-artifact-1",
  "contractName": "RentableNft",
  "sourceName": "contracts/RentableNft.sol",
  "abi": [
    {
      "inputs": [],
      "stateMutability": "nonpayable",
      "type": "constructor"
    },
    {
      "anonymous": false,
      "inputs": [
        {
          "indexed": true,
          "internalType": "address",
          "name": "owner",
          "type": "address"
        },
        {
          "indexed": true,
          "internalType": "address",
          "name": "approved",
          "type": "address"
        },
        {
          "indexed": true,
          "internalType": "uint256",
          "name": "tokenId",
          "type": "uint256"
        }
      ],
      "name": "Approval",
      "type": "event"
    },
    {
      "anonymous": false,
      "inputs": [
        {
          "indexed": true,
          "internalType": "address",
          "name": "owner",
          "type": "address"
        },
        {
          "indexed": true,
          "internalType": "address",
          "name": "operator",
          "type": "address"
        },
        {
          "indexed": false,
          "internalType": "bool",
          "name": "approved",
          "type": "bool"
        }
      ],
      "name": "ApprovalForAll",
      "type": "event"
    },
    {
      "anonymous": false,
      "inputs": [
        {
          "indexed": true,
          "internalType": "address",
          "name": "from",
          "type": "address"
        },
        {
          "indexed": true,
          "internalType": "address",
          "name": "to",
          "type": "address"
        },
        {
          "indexed": true,
          "internalType": "uint256",
          "name": "tokenId",
          "type": "uint256"
        }
      ],
      "name": "Transfer",
      "type": "event"
    },
    {
      "anonymous": false,
      "inputs": [
        {
          "indexed": true,
          "internalType": "uint256",
          "name": "tokenId",
          "type": "uint256"
        },
        {
          "indexed": true,
          "internalType": "address",
          "name": "user",
          "type": "address"
        },
        {
          "indexed": false,
          "internalType": "uint64",
          "name": "expires",
          "type": "uint64"
        },
        {
          "indexed": false,
          "internalType": "string",
          "name": "mac",
          "type": "string"
        }
      ],
      "name": "UpdateUser",
      "type": "event"
    },
    {
      "inputs": [
        {
          "internalType": "address",
          "name": "to",
          "type": "address"
        },
        {
          "internalType": "uint256",
          "name": "tokenId",
          "type": "uint256"
        }
      ],
      "name": "approve",
      "outputs": [],
      "stateMutability": "nonpayable",
      "type": "function"
    },
    {
      "inputs": [
        {
          "internalType": "address",
          "name": "owner",
          "type": "address"
        }
      ],
      "name": "balanceOf",
      "outputs": [
        {
          "internalType": "uint256",
          "name": "",
          "type": "uint256"
        }
      ],
      "stateMutability": "view",
      "type": "function"
    },
    {
      "inputs": [
        {
          "internalType": "uint256",
          "name": "tokenId",
          "type": "uint256"
        }
      ],
      "name": "burn",
      "outputs": [],
      "stateMutability": "nonpayable",
      "type": "function"
    },
    {
      "inputs": [
        {
          "internalType": "uint256",
          "name": "tokenId",
          "type": "uint256"
        }
      ],
      "name": "getApproved",
      "outputs": [
        {
          "internalType": "address",
          "name": "",
          "type": "address"
        }
      ],
      "stateMutability": "view",
      "type": "function"
    },
    {
      "inputs": [
        {
          "internalType": "address",
          "name": "owner",
          "type": "address"
        },
        {
          "internalType": "address",
          "name": "operator",
          "type": "address"
        }
      ],
      "name": "isApprovedForAll",
      "outputs": [
        {
          "internalType": "bool",
          "name": "",
          "type": "bool"
        }
      ],
      "stateMutability": "view",
      "type": "function"
    },
    {
      "inputs": [],
      "name": "mint",
      "outputs": [],
      "stateMutability": "nonpayable",
      "type": "function"
    },
    {
      "inputs": [],
      "name": "name",
      "outputs": [
        {
          "internalType": "string",
          "name": "",
          "type": "string"
        }
      ],
      "stateMutability": "view",
      "type": "function"
    },
    {
      "inputs": [
        {
          "internalType": "uint256",
          "name": "tokenId",
          "type": "uint256"
        }
      ],
      "name": "ownerOf",
      "outputs": [
        {
          "internalType": "address",
          "name": "",
          "type": "address"
        }
      ],
      "stateMutability": "view",
      "type": "function"
    },
    {
      "inputs": [
        {
          "internalType": "address",
          "name": "from",
          "type": "address"
        },
        {
          "internalType": "address",
          "name": "to",
          "type": "address"
        },
        {
          "internalType": "uint256",
          "name": "tokenId",
          "type": "uint256"
        }
      ],
      "name": "safeTransferFrom",
      "outputs": [],
      "stateMutability": "nonpayable",
      "type": "function"
    },
    {
      "inputs": [
        {
          "internalType": "address",
          "name": "from",
          "type": "address"
        },
        {
          "internalType": "address",
          "name": "to",
          "type": "address"
        },
        {
          "internalType": "uint256",
          "name": "tokenId",
          "type": "uint256"
        },
        {
          "internalType": "bytes",
          "name": "data",
          "type": "bytes"
        }
      ],
      "name": "safeTransferFrom",
      "outputs": [],
      "stateMutability": "nonpayable",
      "type": "function"
    },
    {
      "inputs": [
        {
          "internalType": "address",
          "name": "operator",
          "type": "address"
        },
        {
          "internalType": "bool",
          "name": "approved",
          "type": "bool"
        }
      ],
      "name": "setApprovalForAll",
      "outputs": [],
      "stateMutability": "nonpayable",
      "type": "function"
    },
    {
      "inputs": [
        {
          "internalType": "uint256",
          "name": "tokenId",
          "type": "uint256"
        },
        {
          "internalType": "address",
          "name": "user",
          "type": "address"
        },
        {
          "internalType": "uint64",
          "name": "expires",
          "type": "uint64"
        },
        {
          "internalType": "string",
          "name": "mac",
          "type": "string"
        }
      ],
      "name": "setUser",
      "outputs": [],
      "stateMutability": "nonpayable",
      "type": "function"
    },
    {
      "inputs": [
        {
          "internalType": "bytes4",
          "name": "interfaceId",
          "type": "bytes4"
        }
      ],
      "name": "supportsInterface",
      "outputs": [
        {
          "internalType": "bool",
          "name": "",
          "type": "bool"
        }
      ],
      "stateMutability": "view",
      "type": "function"
    },
    {
      "inputs": [],
      "name": "symbol",
      "outputs": [
        {
          "internalType": "string",
          "name": "",
          "type": "string"
        }
      ],
      "stateMutability": "view",
      "type": "function"
    },
    {
      "inputs": [
        {
          "internalType": "uint256",
          "name": "tokenId",
          "type": "uint256"
        }
      ],
      "name": "tokenURI",
      "outputs": [
        {
          "internalType": "string",
          "name": "",
          "type": "string"
        }
      ],
      "stateMutability": "view",
      "type": "function"
    },
    {
      "inputs": [
        {
          "internalType": "address",
          "name": "from",
          "type": "address"
        },
        {
          "internalType": "address",
          "name": "to",
          "type": "address"
        },
        {
          "internalType": "uint256",
          "name": "tokenId",
          "type": "uint256"
        }
      ],
      "name": "transferFrom",
      "outputs": [],
      "stateMutability": "nonpayable",
      "type": "function"
    },
    {
      "inputs": [
        {
          "internalType": "uint256",
          "name": "tokenId",
          "type": "uint256"
        }
      ],
      "name": "userExpires",
      "outputs": [
        {
          "internalType": "uint256",
          "name": "",
          "type": "uint256"
        }
      ],
      "stateMutability": "view",
      "type": "function"
    },
    {
      "inputs": [
        {
          "internalType": "uint256",
          "name": "tokenId",
          "type": "uint256"
        }
      ],
      "name": "userOf",
      "outputs": [
        {
          "internalType": "address",
          "name": "",
          "type": "address"
        }
      ],
      "stateMutability": "view",
      "type": "function"
    }
  ],
  "bytecode": "0x60806040523480156200001157600080fd5b506040518060400160405280600b81526020017f52656e7461626c654e66740000000000000000000000000000000000000000008152506040518060400160405280600281526020017f524e0000000000000000000000000000000000000000000000000000000000008152508181816000908162000091919062000328565b508060019081620000a3919062000328565b50505050506200040f565b600081519050919050565b7f4e487b7100000000000000000000000000000000000000000000000000000000600052604160045260246000fd5b7f4e487b7100000000000000000000000000000000000000000000000000000000600052602260045260246000fd5b600060028204905060018216806200013057607f821691505b602082108103620001465762000145620000e8565b5b50919050565b60008190508160005260206000209050919050565b60006020601f8301049050919050565b600082821b905092915050565b600060088302620001b07fffffffffffffffffffffffffffffffffffffffffffffffffffffffffffffffff8262000171565b620001bc868362000171565b95508019841693508086168417925050509392505050565b6000819050919050565b6000819050919050565b60006200020962000203620001fd84620001d4565b620001de565b620001d4565b9050919050565b6000819050919050565b6200022583620001e8565b6200023d620002348262000210565b8484546200017e565b825550505050565b600090565b6200025462000245565b620002618184846200021a565b505050565b5b8181101562000289576200027d6000826200024a565b60018101905062000267565b5050565b601f821115620002d857620002a2816200014c565b620002ad8462000161565b81016020851015620002bd578190505b620002d5620002cc8562000161565b83018262000266565b50505b505050565b600082821c905092915050565b6000620002fd60001984600802620002dd565b1980831691505092915050565b6000620003188383620002ea565b9150826002028217905092915050565b6200033382620000ae565b67ffffffffffffffff8111156200034f576200034e620000b9565b5b6200035b825462000117565b620003688282856200028d565b600060209050601f831160018114620003a057600084156200038b578287015190505b6200039785826200030a565b86555062000407565b601f198416620003b0866200014c565b60005b82811015620003da57848901518255600182019150602085019450602081019050620003b3565b86831015620003fa5784890151620003f6601f891682620002ea565b8355505b6001600288020188555050505b505050505050565b61300c806200041f6000396000f3fe608060405234801561001057600080fd5b50600436106101165760003560e01c806370a08231116100a2578063b88d4fde11610071578063b88d4fde146102dd578063c2f1f14a146102f9578063c87b56dd14610329578063cd3e71ab14610359578063e985e9c51461037557610116565b806370a08231146102435780638fc88c481461027357806395d89b41146102a3578063a22cb465146102c157610116565b80631249c58b116100e95780631249c58b146101b557806323b872dd146101bf57806342842e0e146101db57806342966c68146101f75780636352211e1461021357610116565b806301ffc9a71461011b57806306fdde031461014b578063081812fc14610169578063095ea7b314610199575b600080fd5b61013560048036038101906101309190611f3c565b6103a5565b6040516101429190611f84565b60405180910390f35b61015361041f565b604051610160919061202f565b60405180910390f35b610183600480360381019061017e9190612087565b6104b1565b60405161019091906120f5565b60405180910390f35b6101b360048036038101906101ae919061213c565b6104f7565b005b6101bd61060e565b005b6101d960048036038101906101d4919061217c565b610633565b005b6101f560048036038101906101f0919061217c565b610693565b005b610211600480360381019061020c9190612087565b6106b3565b005b61022d60048036038101906102289190612087565b6106bf565b60405161023a91906120f5565b60405180910390f35b61025d600480360381019061025891906121cf565b610745565b60405161026a919061220b565b60405180910390f35b61028d60048036038101906102889190612087565b6107fc565b60405161029a919061220b565b60405180910390f35b6102ab61087f565b6040516102b8919061202f565b60405180910390f35b6102db60048036038101906102d69190612252565b610911565b005b6102f760048036038101906102f291906123c7565b610927565b005b610313600480360381019061030e9190612087565b610989565b60405161032091906120f5565b60405180910390f35b610343600480360381019061033e9190612087565b610a0e565b604051610350919061202f565b60405180910390f35b610373600480360381019061036e919061252b565b610a76565b005b61038f600480360381019061038a91906125ae565b610c4d565b60405161039c9190611f84565b60405180910390f35b60007f80070ca9000000000000000000000000000000000000000000000000000000007bffffffffffffffffffffffffffffffffffffffffffffffffffffffff1916827bffffffffffffffffffffffffffffffffffffffffffffffffffffffff19161480610418575061041782610ce1565b5b9050919050565b60606000805461042e9061261d565b80601f016020809104026020016040519081016040528092919081815260200182805461045a9061261d565b80156104a75780601f1061047c576101008083540402835291602001916104a7565b820191906000526020600020905b81548152906001019060200180831161048a57829003601f168201915b5050505050905090565b60006104bc82610dc3565b6004600083815260200190815260200160002060009054906101000a900473ffffffffffffffffffffffffffffffffffffffff169050919050565b6000610502826106bf565b90508073ffffffffffffffffffffffffffffffffffffffff168373ffffffffffffffffffffffffffffffffffffffff1603610572576040517f08c379a0000000000000000000000000000000000000000000000000000000008152600401610569906126c0565b60405180910390fd5b8073ffffffffffffffffffffffffffffffffffffffff16610591610e0e565b73ffffffffffffffffffffffffffffffffffffffff1614806105c057506105bf816105ba610e0e565b610c4d565b5b6105ff576040517f08c379a00000000000000000000000000000000000000000000000000000000081526004016105f690612752565b60405180910390fd5b6106098383610e16565b505050565b6106186007610ecf565b60006106246007610ee5565b90506106303382610ef3565b50565b61064461063e610e0e565b82610f11565b610683576040517f08c379a000000000000000000000000000000000000000000000000000000000815260040161067a906127e4565b60405180910390fd5b61068e838383610fa6565b505050565b6106ae83838360405180602001604052806000815250610927565b505050565b6106bc8161129f565b50565b6000806106cb836113ed565b9050600073ffffffffffffffffffffffffffffffffffffffff168173ffffffffffffffffffffffffffffffffffffffff160361073c576040517f08c379a000000000000000000000000000000000000000000000000000000000815260040161073390612850565b60405180910390fd5b80915050919050565b60008073ffffffffffffffffffffffffffffffffffffffff168273ffffffffffffffffffffffffffffffffffffffff16036107b5576040517f08c379a00000000000000000000000000000000000000000000000000000000081526004016107ac906128e2565b60405180910390fd5b600360008373ffffffffffffffffffffffffffffffffffffffff1673ffffffffffffffffffffffffffffffffffffffff168152602001908152602001600020549050919050565b6000426006600084815260200190815260200160002060000160149054906101000a900467ffffffffffffffff1667ffffffffffffffff1610610875576006600083815260200190815260200160002060000160149054906101000a900467ffffffffffffffff1667ffffffffffffffff16905061087a565b600090505b919050565b60606001805461088e9061261d565b80601f01602080910402602001604051908101604052809291908181526020018280546108ba9061261d565b80156109075780601f106108dc57610100808354040283529160200191610907565b820191906000526020600020905b8154815290600101906020018083116108ea57829003601f168201915b5050505050905090565b61092361091c610e0e565b838361142a565b5050565b610938610932610e0e565b83610f11565b610977576040517f08c379a000000000000000000000000000000000000000000000000000000000815260040161096e906127e4565b60405180910390fd5b61098384848484611596565b50505050565b6000426006600084815260200190815260200160002060000160149054906101000a900467ffffffffffffffff1667ffffffffffffffff1610610a04576006600083815260200190815260200160002060000160009054906101000a900473ffffffffffffffffffffffffffffffffffffffff169050610a09565b600090505b919050565b6060610a1982610dc3565b6000610a236115f2565b90506000815111610a435760405180602001604052806000815250610a6e565b80610a4d84611609565b604051602001610a5e92919061293e565b6040516020818303038152906040525b915050919050565b610a803385610f11565b610abf576040517f08c379a0000000000000000000000000000000000000000000000000000000008152600401610ab6906129d4565b60405180910390fd5b6000600660008681526020019081526020016000209050428367ffffffffffffffff161015610b23576040517f08c379a0000000000000000000000000000000000000000000000000000000008152600401610b1a90612a40565b60405180910390fd5b428160000160149054906101000a900467ffffffffffffffff1667ffffffffffffffff1610610b87576040517f08c379a0000000000000000000000000000000000000000000000000000000008152600401610b7e90612aac565b60405180910390fd5b838160000160006101000a81548173ffffffffffffffffffffffffffffffffffffffff021916908373ffffffffffffffffffffffffffffffffffffffff160217905550828160000160146101000a81548167ffffffffffffffff021916908367ffffffffffffffff1602179055508373ffffffffffffffffffffffffffffffffffffffff16857f73da6478683fff19fdd3559e4a23f4940ec15b3d53c8e6571f97360124ebe2cb8585604051610c3e929190612adb565b60405180910390a35050505050565b6000600560008473ffffffffffffffffffffffffffffffffffffffff1673ffffffffffffffffffffffffffffffffffffffff16815260200190815260200160002060008373ffffffffffffffffffffffffffffffffffffffff1673ffffffffffffffffffffffffffffffffffffffff16815260200190815260200160002060009054906101000a900460ff16905092915050565b60007f80ac58cd000000000000000000000000000000000000000000000000000000007bffffffffffffffffffffffffffffffffffffffffffffffffffffffff1916827bffffffffffffffffffffffffffffffffffffffffffffffffffffffff19161480610dac57507f5b5e139f000000000000000000000000000000000000000000000000000000007bffffffffffffffffffffffffffffffffffffffffffffffffffffffff1916827bffffffffffffffffffffffffffffffffffffffffffffffffffffffff1916145b80610dbc5750610dbb826116d7565b5b9050919050565b610dcc81611741565b610e0b576040517f08c379a0000000000000000000000000000000000000000000000000000000008152600401610e0290612850565b60405180910390fd5b50565b600033905090565b816004600083815260200190815260200160002060006101000a81548173ffffffffffffffffffffffffffffffffffffffff021916908373ffffffffffffffffffffffffffffffffffffffff160217905550808273ffffffffffffffffffffffffffffffffffffffff16610e89836106bf565b73ffffffffffffffffffffffffffffffffffffffff167f8c5be1e5ebec7d5bd14f71427d1e84f3dd0314c0f7b2291e5b200ac8c7c3b92560405160405180910390a45050565b6001816000016000828254019250508190555050565b600081600001549050919050565b610f0d828260405180602001604052806000815250611782565b5050565b600080610f1d836106bf565b90508073ffffffffffffffffffffffffffffffffffffffff168473ffffffffffffffffffffffffffffffffffffffff161480610f5f5750610f5e8185610c4d565b5b80610f9d57508373ffffffffffffffffffffffffffffffffffffffff16610f85846104b1565b73ffffffffffffffffffffffffffffffffffffffff16145b91505092915050565b8273ffffffffffffffffffffffffffffffffffffffff16610fc6826106bf565b73ffffffffffffffffffffffffffffffffffffffff161461101c576040517f08c379a000000000000000000000000000000000000000000000000000000000815260040161101390612b7d565b60405180910390fd5b600073ffffffffffffffffffffffffffffffffffffffff168273ffffffffffffffffffffffffffffffffffffffff160361108b576040517f08c379a000000000000000000000000000000000000000000000000000000000815260040161108290612c0f565b60405180910390fd5b61109883838360016117dd565b8273ffffffffffffffffffffffffffffffffffffffff166110b8826106bf565b73ffffffffffffffffffffffffffffffffffffffff161461110e576040517f08c379a000000000000000000000000000000000000000000000000000000000815260040161110590612b7d565b60405180910390fd5b6004600082815260200190815260200160002060006101000a81549073ffffffffffffffffffffffffffffffffffffffff02191690556001600360008573ffffffffffffffffffffffffffffffffffffffff1673ffffffffffffffffffffffffffffffffffffffff168152602001908152602001600020600082825403925050819055506001600360008473ffffffffffffffffffffffffffffffffffffffff1673ffffffffffffffffffffffffffffffffffffffff16815260200190815260200160002060008282540192505081905550816002600083815260200190815260200160002060006101000a81548173ffffffffffffffffffffffffffffffffffffffff021916908373ffffffffffffffffffffffffffffffffffffffff160217905550808273ffffffffffffffffffffffffffffffffffffffff168473ffffffffffffffffffffffffffffffffffffffff167fddf252ad1be2c89b69c2b068fc378daa952ba7f163c4a11628f55a4df523b3ef60405160405180910390a461129a838383600161194d565b505050565b60006112aa826106bf565b90506112ba8160008460016117dd565b6112c3826106bf565b90506004600083815260200190815260200160002060006101000a81549073ffffffffffffffffffffffffffffffffffffffff02191690556001600360008373ffffffffffffffffffffffffffffffffffffffff1673ffffffffffffffffffffffffffffffffffffffff168152602001908152602001600020600082825403925050819055506002600083815260200190815260200160002060006101000a81549073ffffffffffffffffffffffffffffffffffffffff021916905581600073ffffffffffffffffffffffffffffffffffffffff168273ffffffffffffffffffffffffffffffffffffffff167fddf252ad1be2c89b69c2b068fc378daa952ba7f163c4a11628f55a4df523b3ef60405160405180910390a46113e981600084600161194d565b5050565b60006002600083815260200190815260200160002060009054906101000a900473ffffffffffffffffffffffffffffffffffffffff169050919050565b8173ffffffffffffffffffffffffffffffffffffffff168373ffffffffffffffffffffffffffffffffffffffff1603611498576040517f08c379a000000000000000000000000000000000000000000000000000000000815260040161148f90612c7b565b60405180910390fd5b80600560008573ffffffffffffffffffffffffffffffffffffffff1673ffffffffffffffffffffffffffffffffffffffff16815260200190815260200160002060008473ffffffffffffffffffffffffffffffffffffffff1673ffffffffffffffffffffffffffffffffffffffff16815260200190815260200160002060006101000a81548160ff0219169083151502179055508173ffffffffffffffffffffffffffffffffffffffff168373ffffffffffffffffffffffffffffffffffffffff167f17307eab39ab6107e8899845ad3d59bd9653f200f220920489ca2b5937696c31836040516115899190611f84565b60405180910390a3505050565b6115a1848484610fa6565b6115ad84848484611953565b6115ec576040517f08c379a00000000000000000000000000000000000000000000000000000000081526004016115e390612d0d565b60405180910390fd5b50505050565b606060405180602001604052806000815250905090565b60606000600161161884611ada565b01905060008167ffffffffffffffff8111156116375761163661229c565b5b6040519080825280601f01601f1916602001820160405280156116695781602001600182028036833780820191505090505b509050600082602001820190505b6001156116cc578080600190039150507f3031323334353637383961626364656600000000000000000000000000000000600a86061a8153600a85816116c0576116bf612d2d565b5b04945060008503611677575b819350505050919050565b60007f01ffc9a7000000000000000000000000000000000000000000000000000000007bffffffffffffffffffffffffffffffffffffffffffffffffffffffff1916827bffffffffffffffffffffffffffffffffffffffffffffffffffffffff1916149050919050565b60008073ffffffffffffffffffffffffffffffffffffffff16611763836113ed565b73ffffffffffffffffffffffffffffffffffffffff1614159050919050565b61178c8383611c2d565b6117996000848484611953565b6117d8576040517f08c379a00000000000000000000000000000000000000000000000000000000081526004016117cf90612d0d565b60405180910390fd5b505050565b6117e984848484611e4a565b8273ffffffffffffffffffffffffffffffffffffffff168473ffffffffffffffffffffffffffffffffffffffff16141580156118885750600073ffffffffffffffffffffffffffffffffffffffff166006600084815260200190815260200160002060000160009054906101000a900473ffffffffffffffffffffffffffffffffffffffff1673ffffffffffffffffffffffffffffffffffffffff1614155b156119475760066000838152602001908152602001600020600080820160006101000a81549073ffffffffffffffffffffffffffffffffffffffff02191690556000820160146101000a81549067ffffffffffffffff02191690556001820160006118f39190611e73565b5050600073ffffffffffffffffffffffffffffffffffffffff16827f73da6478683fff19fdd3559e4a23f4940ec15b3d53c8e6571f97360124ebe2cb600060405161193e9190612ded565b60405180910390a35b50505050565b50505050565b60006119748473ffffffffffffffffffffffffffffffffffffffff16611e50565b15611acd578373ffffffffffffffffffffffffffffffffffffffff1663150b7a0261199d610e0e565b8786866040518563ffffffff1660e01b81526004016119bf9493929190612e70565b6020604051808303816000875af19250505080156119fb57506040513d601f19601f820116820180604052508101906119f89190612ed1565b60015b611a7d573d8060008114611a2b576040519150601f19603f3d011682016040523d82523d6000602084013e611a30565b606091505b506000815103611a75576040517f08c379a0000000000000000000000000000000000000000000000000000000008152600401611a6c90612d0d565b60405180910390fd5b805181602001fd5b63150b7a0260e01b7bffffffffffffffffffffffffffffffffffffffffffffffffffffffff1916817bffffffffffffffffffffffffffffffffffffffffffffffffffffffff191614915050611ad2565b600190505b949350505050565b600080600090507a184f03e93ff9f4daa797ed6e38ed64bf6a1f0100000000000000008310611b38577a184f03e93ff9f4daa797ed6e38ed64bf6a1f0100000000000000008381611b2e57611b2d612d2d565b5b0492506040810190505b6d04ee2d6d415b85acef81000000008310611b75576d04ee2d6d415b85acef81000000008381611b6b57611b6a612d2d565b5b0492506020810190505b662386f26fc100008310611ba457662386f26fc100008381611b9a57611b99612d2d565b5b0492506010810190505b6305f5e1008310611bcd576305f5e1008381611bc357611bc2612d2d565b5b0492506008810190505b6127108310611bf2576127108381611be857611be7612d2d565b5b0492506004810190505b60648310611c155760648381611c0b57611c0a612d2d565b5b0492506002810190505b600a8310611c24576001810190505b80915050919050565b600073ffffffffffffffffffffffffffffffffffffffff168273ffffffffffffffffffffffffffffffffffffffff1603611c9c576040517f08c379a0000000000000000000000000000000000000000000000000000000008152600401611c9390612f4a565b60405180910390fd5b611ca581611741565b15611ce5576040517f08c379a0000000000000000000000000000000000000000000000000000000008152600401611cdc90612fb6565b60405180910390fd5b611cf36000838360016117dd565b611cfc81611741565b15611d3c576040517f08c379a0000000000000000000000000000000000000000000000000000000008152600401611d3390612fb6565b60405180910390fd5b6001600360008473ffffffffffffffffffffffffffffffffffffffff1673ffffffffffffffffffffffffffffffffffffffff16815260200190815260200160002060008282540192505081905550816002600083815260200190815260200160002060006101000a81548173ffffffffffffffffffffffffffffffffffffffff021916908373ffffffffffffffffffffffffffffffffffffffff160217905550808273ffffffffffffffffffffffffffffffffffffffff16600073ffffffffffffffffffffffffffffffffffffffff167fddf252ad1be2c89b69c2b068fc378daa952ba7f163c4a11628f55a4df523b3ef60405160405180910390a4611e4660008383600161194d565b5050565b50505050565b6000808273ffffffffffffffffffffffffffffffffffffffff163b119050919050565b508054611e7f9061261d565b6000825580601f10611e915750611eb0565b601f016020900490600052602060002090810190611eaf9190611eb3565b5b50565b5b80821115611ecc576000816000905550600101611eb4565b5090565b6000604051905090565b600080fd5b600080fd5b60007fffffffff0000000000000000000000000000000000000000000000000000000082169050919050565b611f1981611ee4565b8114611f2457600080fd5b50565b600081359050611f3681611f10565b92915050565b600060208284031215611f5257611f51611eda565b5b6000611f6084828501611f27565b91505092915050565b60008115159050919050565b611f7e81611f69565b82525050565b6000602082019050611f996000830184611f75565b92915050565b600081519050919050565b600082825260208201905092915050565b60005b83811015611fd9578082015181840152602081019050611fbe565b60008484015250505050565b6000601f19601f8301169050919050565b600061200182611f9f565b61200b8185611faa565b935061201b818560208601611fbb565b61202481611fe5565b840191505092915050565b600060208201905081810360008301526120498184611ff6565b905092915050565b6000819050919050565b61206481612051565b811461206f57600080fd5b50565b6000813590506120818161205b565b92915050565b60006020828403121561209d5761209c611eda565b5b60006120ab84828501612072565b91505092915050565b600073ffffffffffffffffffffffffffffffffffffffff82169050919050565b60006120df826120b4565b9050919050565b6120ef816120d4565b82525050565b600060208201905061210a60008301846120e6565b92915050565b612119816120d4565b811461212457600080fd5b50565b60008135905061213681612110565b92915050565b6000806040838503121561215357612152611eda565b5b600061216185828601612127565b925050602061217285828601612072565b9150509250929050565b60008060006060848603121561219557612194611eda565b5b60006121a386828701612127565b93505060206121b486828701612127565b92505060406121c586828701612072565b9150509250925092565b6000602082840312156121e5576121e4611eda565b5b60006121f384828501612127565b91505092915050565b61220581612051565b82525050565b600060208201905061222060008301846121fc565b92915050565b61222f81611f69565b811461223a57600080fd5b50565b60008135905061224c81612226565b92915050565b6000806040838503121561226957612268611eda565b5b600061227785828601612127565b92505060206122888582860161223d565b9150509250929050565b600080fd5b600080fd5b7f4e487b7100000000000000000000000000000000000000000000000000000000600052604160045260246000fd5b6122d482611fe5565b810181811067ffffffffffffffff821117156122f3576122f261229c565b5b80604052505050565b6000612306611ed0565b905061231282826122cb565b919050565b600067ffffffffffffffff8211156123325761233161229c565b5b61233b82611fe5565b9050602081019050919050565b82818337600083830152505050565b600061236a61236584612317565b6122fc565b90508281526020810184848401111561238657612385612297565b5b612391848285612348565b509392505050565b600082601f8301126123ae576123ad612292565b5b81356123be848260208601612357565b91505092915050565b600080600080608085870312156123e1576123e0611eda565b5b60006123ef87828801612127565b945050602061240087828801612127565b935050604061241187828801612072565b925050606085013567ffffffffffffffff81111561243257612431611edf565b5b61243e87828801612399565b91505092959194509250565b600067ffffffffffffffff82169050919050565b6124678161244a565b811461247257600080fd5b50565b6000813590506124848161245e565b92915050565b600067ffffffffffffffff8211156124a5576124a461229c565b5b6124ae82611fe5565b9050602081019050919050565b60006124ce6124c98461248a565b6122fc565b9050828152602081018484840111156124ea576124e9612297565b5b6124f5848285612348565b509392505050565b600082601f83011261251257612511612292565b5b81356125228482602086016124bb565b91505092915050565b6000806000806080858703121561254557612544611eda565b5b600061255387828801612072565b945050602061256487828801612127565b935050604061257587828801612475565b925050606085013567ffffffffffffffff81111561259657612595611edf565b5b6125a2878288016124fd565b91505092959194509250565b600080604083850312156125c5576125c4611eda565b5b60006125d385828601612127565b92505060206125e485828601612127565b9150509250929050565b7f4e487b7100000000000000000000000000000000000000000000000000000000600052602260045260246000fd5b6000600282049050600182168061263557607f821691505b602082108103612648576126476125ee565b5b50919050565b7f4552433732313a20617070726f76616c20746f2063757272656e74206f776e6560008201527f7200000000000000000000000000000000000000000000000000000000000000602082015250565b60006126aa602183611faa565b91506126b58261264e565b604082019050919050565b600060208201905081810360008301526126d98161269d565b9050919050565b7f4552433732313a20617070726f76652063616c6c6572206973206e6f7420746f60008201527f6b656e206f776e6572206f7220617070726f76656420666f7220616c6c000000602082015250565b600061273c603d83611faa565b9150612747826126e0565b604082019050919050565b6000602082019050818103600083015261276b8161272f565b9050919050565b7f4552433732313a2063616c6c6572206973206e6f7420746f6b656e206f776e6560008201527f72206f7220617070726f76656400000000000000000000000000000000000000602082015250565b60006127ce602d83611faa565b91506127d982612772565b604082019050919050565b600060208201905081810360008301526127fd816127c1565b9050919050565b7f4552433732313a20696e76616c696420746f6b656e2049440000000000000000600082015250565b600061283a601883611faa565b915061284582612804565b602082019050919050565b600060208201905081810360008301526128698161282d565b9050919050565b7f4552433732313a2061646472657373207a65726f206973206e6f74206120766160008201527f6c6964206f776e65720000000000000000000000000000000000000000000000602082015250565b60006128cc602983611faa565b91506128d782612870565b604082019050919050565b600060208201905081810360008301526128fb816128bf565b9050919050565b600081905092915050565b600061291882611f9f565b6129228185612902565b9350612932818560208601611fbb565b80840191505092915050565b600061294a828561290d565b9150612956828461290d565b91508190509392505050565b7f4552433732313a207472616e736665722063616c6c6572206973206e6f74206f60008201527f776e6572206e6f7220617070726f766564000000000000000000000000000000602082015250565b60006129be603183611faa565b91506129c982612962565b604082019050919050565b600060208201905081810360008301526129ed816129b1565b9050919050565b7f457870697265733c63757272656e742074696d65000000000000000000000000600082015250565b6000612a2a601483611faa565b9150612a35826129f4565b602082019050919050565b60006020820190508181036000830152612a5981612a1d565b9050919050565b7f416c72656164792072656e74656420746f20736f6d656f6e6500000000000000600082015250565b6000612a96601983611faa565b9150612aa182612a60565b602082019050919050565b60006020820190508181036000830152612ac581612a89565b9050919050565b612ad58161244a565b82525050565b6000604082019050612af06000830185612acc565b8181036020830152612b028184611ff6565b90509392505050565b7f4552433732313a207472616e736665722066726f6d20696e636f72726563742060008201527f6f776e6572000000000000000000000000000000000000000000000000000000602082015250565b6000612b67602583611faa565b9150612b7282612b0b565b604082019050919050565b60006020820190508181036000830152612b9681612b5a565b9050919050565b7f4552433732313a207472616e7366657220746f20746865207a65726f2061646460008201527f7265737300000000000000000000000000000000000000000000000000000000602082015250565b6000612bf9602483611faa565b9150612c0482612b9d565b604082019050919050565b60006020820190508181036000830152612c2881612bec565b9050919050565b7f4552433732313a20617070726f766520746f2063616c6c657200000000000000600082015250565b6000612c65601983611faa565b9150612c7082612c2f565b602082019050919050565b60006020820190508181036000830152612c9481612c58565b9050919050565b7f4552433732313a207472616e7366657220746f206e6f6e20455243373231526560008201527f63656976657220696d706c656d656e7465720000000000000000000000000000602082015250565b6000612cf7603283611faa565b9150612d0282612c9b565b604082019050919050565b60006020820190508181036000830152612d2681612cea565b9050919050565b7f4e487b7100000000000000000000000000000000000000000000000000000000600052601260045260246000fd5b6000819050919050565b6000819050919050565b6000612d8b612d86612d8184612d5c565b612d66565b61244a565b9050919050565b612d9b81612d70565b82525050565b7f3030000000000000000000000000000000000000000000000000000000000000600082015250565b6000612dd7600283611faa565b9150612de282612da1565b602082019050919050565b6000604082019050612e026000830184612d92565b8181036020830152612e1381612dca565b905092915050565b600081519050919050565b600082825260208201905092915050565b6000612e4282612e1b565b612e4c8185612e26565b9350612e5c818560208601611fbb565b612e6581611fe5565b840191505092915050565b6000608082019050612e8560008301876120e6565b612e9260208301866120e6565b612e9f60408301856121fc565b8181036060830152612eb18184612e37565b905095945050505050565b600081519050612ecb81611f10565b92915050565b600060208284031215612ee757612ee6611eda565b5b6000612ef584828501612ebc565b91505092915050565b7f4552433732313a206d696e7420746f20746865207a65726f2061646472657373600082015250565b6000612f34602083611faa565b9150612f3f82612efe565b602082019050919050565b60006020820190508181036000830152612f6381612f27565b9050919050565b7f4552433732313a20746f6b656e20616c7265616479206d696e74656400000000600082015250565b6000612fa0601c83611faa565b9150612fab82612f6a565b602082019050919050565b60006020820190508181036000830152612fcf81612f93565b905091905056fea264697066735822122041e4139130119c6e7305217f6a1279c0ee36338efc1dc1f1e5d28c4977c7153564736f6c63430008130033",
  "linkReferences": {},
  "deployedLinkReferences": {}
}