{
  "_format": "hh-sol-artifact-1",
  "contractName": "ERC4907",
  "sourceName": "contracts/ERC4907.sol",
  "abi": [
    {
      "inputs": [
        {
          "internalType": "string",
          "name": "name_",
          "type": "string"
        },
        {
          "internalType": "string",
          "name": "symbol_",
          "type": "string"
        }
      ],
      "stateMutability": "nonpayable",
      "type": "constructor"
    },
    {
      "anonymous": false,
      "inputs": [
        {
          "indexed": true,
          "internalType": "address",
          "name": "owner",
          "type": "address"
        },
        {
          "indexed": true,
          "internalType": "address",
          "name": "approved",
          "type": "address"
        },
        {
          "indexed": true,
          "internalType": "uint256",
          "name": "tokenId",
          "type": "uint256"
        }
      ],
      "name": "Approval",
      "type": "event"
    },
    {
      "anonymous": false,
      "inputs": [
        {
          "indexed": true,
          "internalType": "address",
          "name": "owner",
          "type": "address"
        },
        {
          "indexed": true,
          "internalType": "address",
          "name": "operator",
          "type": "address"
        },
        {
          "indexed": false,
          "internalType": "bool",
          "name": "approved",
          "type": "bool"
        }
      ],
      "name": "ApprovalForAll",
      "type": "event"
    },
    {
      "anonymous": false,
      "inputs": [
        {
          "indexed": true,
          "internalType": "address",
          "name": "from",
          "type": "address"
        },
        {
          "indexed": true,
          "internalType": "address",
          "name": "to",
          "type": "address"
        },
        {
          "indexed": true,
          "internalType": "uint256",
          "name": "tokenId",
          "type": "uint256"
        }
      ],
      "name": "Transfer",
      "type": "event"
    },
    {
      "anonymous": false,
      "inputs": [
        {
          "indexed": true,
          "internalType": "uint256",
          "name": "tokenId",
          "type": "uint256"
        },
        {
          "indexed": true,
          "internalType": "address",
          "name": "user",
          "type": "address"
        },
        {
          "indexed": false,
          "internalType": "uint64",
          "name": "expires",
          "type": "uint64"
        },
        {
          "indexed": false,
          "internalType": "string",
          "name": "mac",
          "type": "string"
        }
      ],
      "name": "UpdateUser",
      "type": "event"
    },
    {
      "inputs": [
        {
          "internalType": "address",
          "name": "to",
          "type": "address"
        },
        {
          "internalType": "uint256",
          "name": "tokenId",
          "type": "uint256"
        }
      ],
      "name": "approve",
      "outputs": [],
      "stateMutability": "nonpayable",
      "type": "function"
    },
    {
      "inputs": [
        {
          "internalType": "address",
          "name": "owner",
          "type": "address"
        }
      ],
      "name": "balanceOf",
      "outputs": [
        {
          "internalType": "uint256",
          "name": "",
          "type": "uint256"
        }
      ],
      "stateMutability": "view",
      "type": "function"
    },
    {
      "inputs": [
        {
          "internalType": "uint256",
          "name": "tokenId",
          "type": "uint256"
        }
      ],
      "name": "getApproved",
      "outputs": [
        {
          "internalType": "address",
          "name": "",
          "type": "address"
        }
      ],
      "stateMutability": "view",
      "type": "function"
    },
    {
      "inputs": [
        {
          "internalType": "address",
          "name": "owner",
          "type": "address"
        },
        {
          "internalType": "address",
          "name": "operator",
          "type": "address"
        }
      ],
      "name": "isApprovedForAll",
      "outputs": [
        {
          "internalType": "bool",
          "name": "",
          "type": "bool"
        }
      ],
      "stateMutability": "view",
      "type": "function"
    },
    {
      "inputs": [],
      "name": "name",
      "outputs": [
        {
          "internalType": "string",
          "name": "",
          "type": "string"
        }
      ],
      "stateMutability": "view",
      "type": "function"
    },
    {
      "inputs": [
        {
          "internalType": "uint256",
          "name": "tokenId",
          "type": "uint256"
        }
      ],
      "name": "ownerOf",
      "outputs": [
        {
          "internalType": "address",
          "name": "",
          "type": "address"
        }
      ],
      "stateMutability": "view",
      "type": "function"
    },
    {
      "inputs": [
        {
          "internalType": "address",
          "name": "from",
          "type": "address"
        },
        {
          "internalType": "address",
          "name": "to",
          "type": "address"
        },
        {
          "internalType": "uint256",
          "name": "tokenId",
          "type": "uint256"
        }
      ],
      "name": "safeTransferFrom",
      "outputs": [],
      "stateMutability": "nonpayable",
      "type": "function"
    },
    {
      "inputs": [
        {
          "internalType": "address",
          "name": "from",
          "type": "address"
        },
        {
          "internalType": "address",
          "name": "to",
          "type": "address"
        },
        {
          "internalType": "uint256",
          "name": "tokenId",
          "type": "uint256"
        },
        {
          "internalType": "bytes",
          "name": "data",
          "type": "bytes"
        }
      ],
      "name": "safeTransferFrom",
      "outputs": [],
      "stateMutability": "nonpayable",
      "type": "function"
    },
    {
      "inputs": [
        {
          "internalType": "address",
          "name": "operator",
          "type": "address"
        },
        {
          "internalType": "bool",
          "name": "approved",
          "type": "bool"
        }
      ],
      "name": "setApprovalForAll",
      "outputs": [],
      "stateMutability": "nonpayable",
      "type": "function"
    },
    {
      "inputs": [
        {
          "internalType": "uint256",
          "name": "tokenId",
          "type": "uint256"
        },
        {
          "internalType": "address",
          "name": "user",
          "type": "address"
        },
        {
          "internalType": "uint64",
          "name": "expires",
          "type": "uint64"
        },
        {
          "internalType": "string",
          "name": "mac",
          "type": "string"
        }
      ],
      "name": "setUser",
      "outputs": [],
      "stateMutability": "nonpayable",
      "type": "function"
    },
    {
      "inputs": [
        {
          "internalType": "bytes4",
          "name": "interfaceId",
          "type": "bytes4"
        }
      ],
      "name": "supportsInterface",
      "outputs": [
        {
          "internalType": "bool",
          "name": "",
          "type": "bool"
        }
      ],
      "stateMutability": "view",
      "type": "function"
    },
    {
      "inputs": [],
      "name": "symbol",
      "outputs": [
        {
          "internalType": "string",
          "name": "",
          "type": "string"
        }
      ],
      "stateMutability": "view",
      "type": "function"
    },
    {
      "inputs": [
        {
          "internalType": "uint256",
          "name": "tokenId",
          "type": "uint256"
        }
      ],
      "name": "tokenURI",
      "outputs": [
        {
          "internalType": "string",
          "name": "",
          "type": "string"
        }
      ],
      "stateMutability": "view",
      "type": "function"
    },
    {
      "inputs": [
        {
          "internalType": "address",
          "name": "from",
          "type": "address"
        },
        {
          "internalType": "address",
          "name": "to",
          "type": "address"
        },
        {
          "internalType": "uint256",
          "name": "tokenId",
          "type": "uint256"
        }
      ],
      "name": "transferFrom",
      "outputs": [],
      "stateMutability": "nonpayable",
      "type": "function"
    },
    {
      "inputs": [
        {
          "internalType": "uint256",
          "name": "tokenId",
          "type": "uint256"
        }
      ],
      "name": "userExpires",
      "outputs": [
        {
          "internalType": "uint256",
          "name": "",
          "type": "uint256"
        }
      ],
      "stateMutability": "view",
      "type": "function"
    },
    {
      "inputs": [
        {
          "internalType": "uint256",
          "name": "tokenId",
          "type": "uint256"
        }
      ],
      "name": "userOf",
      "outputs": [
        {
          "internalType": "address",
          "name": "",
          "type": "address"
        }
      ],
      "stateMutability": "view",
      "type": "function"
    }
  ],
  "bytecode": "0x60806040523480156200001157600080fd5b5060405162003080380380620030808339818101604052810190620000379190620001fa565b818181600090816200004a9190620004ca565b5080600190816200005c9190620004ca565b5050505050620005b1565b6000604051905090565b600080fd5b600080fd5b600080fd5b600080fd5b6000601f19601f8301169050919050565b7f4e487b7100000000000000000000000000000000000000000000000000000000600052604160045260246000fd5b620000d08262000085565b810181811067ffffffffffffffff82111715620000f257620000f162000096565b5b80604052505050565b60006200010762000067565b9050620001158282620000c5565b919050565b600067ffffffffffffffff82111562000138576200013762000096565b5b620001438262000085565b9050602081019050919050565b60005b838110156200017057808201518184015260208101905062000153565b60008484015250505050565b6000620001936200018d846200011a565b620000fb565b905082815260208101848484011115620001b257620001b162000080565b5b620001bf84828562000150565b509392505050565b600082601f830112620001df57620001de6200007b565b5b8151620001f18482602086016200017c565b91505092915050565b6000806040838503121562000214576200021362000071565b5b600083015167ffffffffffffffff81111562000235576200023462000076565b5b6200024385828601620001c7565b925050602083015167ffffffffffffffff81111562000267576200026662000076565b5b6200027585828601620001c7565b9150509250929050565b600081519050919050565b7f4e487b7100000000000000000000000000000000000000000000000000000000600052602260045260246000fd5b60006002820490506001821680620002d257607f821691505b602082108103620002e857620002e76200028a565b5b50919050565b60008190508160005260206000209050919050565b60006020601f8301049050919050565b600082821b905092915050565b600060088302620003527fffffffffffffffffffffffffffffffffffffffffffffffffffffffffffffffff8262000313565b6200035e868362000313565b95508019841693508086168417925050509392505050565b6000819050919050565b6000819050919050565b6000620003ab620003a56200039f8462000376565b62000380565b62000376565b9050919050565b6000819050919050565b620003c7836200038a565b620003df620003d682620003b2565b84845462000320565b825550505050565b600090565b620003f6620003e7565b62000403818484620003bc565b505050565b5b818110156200042b576200041f600082620003ec565b60018101905062000409565b5050565b601f8211156200047a576200044481620002ee565b6200044f8462000303565b810160208510156200045f578190505b620004776200046e8562000303565b83018262000408565b50505b505050565b600082821c905092915050565b60006200049f600019846008026200047f565b1980831691505092915050565b6000620004ba83836200048c565b9150826002028217905092915050565b620004d5826200027f565b67ffffffffffffffff811115620004f157620004f062000096565b5b620004fd8254620002b9565b6200050a8282856200042f565b600060209050601f8311600181146200054257600084156200052d578287015190505b620005398582620004ac565b865550620005a9565b601f1984166200055286620002ee565b60005b828110156200057c5784890151825560018201915060208501945060208101905062000555565b868310156200059c578489015162000598601f8916826200048c565b8355505b6001600288020188555050505b505050505050565b612abf80620005c16000396000f3fe608060405234801561001057600080fd5b50600436106101005760003560e01c80638fc88c4811610097578063c2f1f14a11610066578063c2f1f14a146102bd578063c87b56dd146102ed578063cd3e71ab1461031d578063e985e9c51461033957610100565b80638fc88c481461023757806395d89b4114610267578063a22cb46514610285578063b88d4fde146102a157610100565b806323b872dd116100d357806323b872dd1461019f57806342842e0e146101bb5780636352211e146101d757806370a082311461020757610100565b806301ffc9a71461010557806306fdde0314610135578063081812fc14610153578063095ea7b314610183575b600080fd5b61011f600480360381019061011a9190611ac7565b610369565b60405161012c9190611b0f565b60405180910390f35b61013d6103e3565b60405161014a9190611bba565b60405180910390f35b61016d60048036038101906101689190611c12565b610475565b60405161017a9190611c80565b60405180910390f35b61019d60048036038101906101989190611cc7565b6104bb565b005b6101b960048036038101906101b49190611d07565b6105d2565b005b6101d560048036038101906101d09190611d07565b610632565b005b6101f160048036038101906101ec9190611c12565b610652565b6040516101fe9190611c80565b60405180910390f35b610221600480360381019061021c9190611d5a565b6106d8565b60405161022e9190611d96565b60405180910390f35b610251600480360381019061024c9190611c12565b61078f565b60405161025e9190611d96565b60405180910390f35b61026f610812565b60405161027c9190611bba565b60405180910390f35b61029f600480360381019061029a9190611ddd565b6108a4565b005b6102bb60048036038101906102b69190611f52565b6108ba565b005b6102d760048036038101906102d29190611c12565b61091c565b6040516102e49190611c80565b60405180910390f35b61030760048036038101906103029190611c12565b6109a1565b6040516103149190611bba565b60405180910390f35b610337600480360381019061033291906120b6565b610a09565b005b610353600480360381019061034e9190612139565b610be0565b6040516103609190611b0f565b60405180910390f35b60007f80070ca9000000000000000000000000000000000000000000000000000000007bffffffffffffffffffffffffffffffffffffffffffffffffffffffff1916827bffffffffffffffffffffffffffffffffffffffffffffffffffffffff191614806103dc57506103db82610c74565b5b9050919050565b6060600080546103f2906121a8565b80601f016020809104026020016040519081016040528092919081815260200182805461041e906121a8565b801561046b5780601f106104405761010080835404028352916020019161046b565b820191906000526020600020905b81548152906001019060200180831161044e57829003601f168201915b5050505050905090565b600061048082610d56565b6004600083815260200190815260200160002060009054906101000a900473ffffffffffffffffffffffffffffffffffffffff169050919050565b60006104c682610652565b90508073ffffffffffffffffffffffffffffffffffffffff168373ffffffffffffffffffffffffffffffffffffffff1603610536576040517f08c379a000000000000000000000000000000000000000000000000000000000815260040161052d9061224b565b60405180910390fd5b8073ffffffffffffffffffffffffffffffffffffffff16610555610da1565b73ffffffffffffffffffffffffffffffffffffffff16148061058457506105838161057e610da1565b610be0565b5b6105c3576040517f08c379a00000000000000000000000000000000000000000000000000000000081526004016105ba906122dd565b60405180910390fd5b6105cd8383610da9565b505050565b6105e36105dd610da1565b82610e62565b610622576040517f08c379a00000000000000000000000000000000000000000000000000000000081526004016106199061236f565b60405180910390fd5b61062d838383610ef7565b505050565b61064d838383604051806020016040528060008152506108ba565b505050565b60008061065e836111f0565b9050600073ffffffffffffffffffffffffffffffffffffffff168173ffffffffffffffffffffffffffffffffffffffff16036106cf576040517f08c379a00000000000000000000000000000000000000000000000000000000081526004016106c6906123db565b60405180910390fd5b80915050919050565b60008073ffffffffffffffffffffffffffffffffffffffff168273ffffffffffffffffffffffffffffffffffffffff1603610748576040517f08c379a000000000000000000000000000000000000000000000000000000000815260040161073f9061246d565b60405180910390fd5b600360008373ffffffffffffffffffffffffffffffffffffffff1673ffffffffffffffffffffffffffffffffffffffff168152602001908152602001600020549050919050565b6000426006600084815260200190815260200160002060000160149054906101000a900467ffffffffffffffff1667ffffffffffffffff1610610808576006600083815260200190815260200160002060000160149054906101000a900467ffffffffffffffff1667ffffffffffffffff16905061080d565b600090505b919050565b606060018054610821906121a8565b80601f016020809104026020016040519081016040528092919081815260200182805461084d906121a8565b801561089a5780601f1061086f5761010080835404028352916020019161089a565b820191906000526020600020905b81548152906001019060200180831161087d57829003601f168201915b5050505050905090565b6108b66108af610da1565b838361122d565b5050565b6108cb6108c5610da1565b83610e62565b61090a576040517f08c379a00000000000000000000000000000000000000000000000000000000081526004016109019061236f565b60405180910390fd5b61091684848484611399565b50505050565b6000426006600084815260200190815260200160002060000160149054906101000a900467ffffffffffffffff1667ffffffffffffffff1610610997576006600083815260200190815260200160002060000160009054906101000a900473ffffffffffffffffffffffffffffffffffffffff16905061099c565b600090505b919050565b60606109ac82610d56565b60006109b66113f5565b905060008151116109d65760405180602001604052806000815250610a01565b806109e08461140c565b6040516020016109f19291906124c9565b6040516020818303038152906040525b915050919050565b610a133385610e62565b610a52576040517f08c379a0000000000000000000000000000000000000000000000000000000008152600401610a499061255f565b60405180910390fd5b6000600660008681526020019081526020016000209050428367ffffffffffffffff161015610ab6576040517f08c379a0000000000000000000000000000000000000000000000000000000008152600401610aad906125cb565b60405180910390fd5b428160000160149054906101000a900467ffffffffffffffff1667ffffffffffffffff1610610b1a576040517f08c379a0000000000000000000000000000000000000000000000000000000008152600401610b1190612637565b60405180910390fd5b838160000160006101000a81548173ffffffffffffffffffffffffffffffffffffffff021916908373ffffffffffffffffffffffffffffffffffffffff160217905550828160000160146101000a81548167ffffffffffffffff021916908367ffffffffffffffff1602179055508373ffffffffffffffffffffffffffffffffffffffff16857f73da6478683fff19fdd3559e4a23f4940ec15b3d53c8e6571f97360124ebe2cb8585604051610bd1929190612666565b60405180910390a35050505050565b6000600560008473ffffffffffffffffffffffffffffffffffffffff1673ffffffffffffffffffffffffffffffffffffffff16815260200190815260200160002060008373ffffffffffffffffffffffffffffffffffffffff1673ffffffffffffffffffffffffffffffffffffffff16815260200190815260200160002060009054906101000a900460ff16905092915050565b60007f80ac58cd000000000000000000000000000000000000000000000000000000007bffffffffffffffffffffffffffffffffffffffffffffffffffffffff1916827bffffffffffffffffffffffffffffffffffffffffffffffffffffffff19161480610d3f57507f5b5e139f000000000000000000000000000000000000000000000000000000007bffffffffffffffffffffffffffffffffffffffffffffffffffffffff1916827bffffffffffffffffffffffffffffffffffffffffffffffffffffffff1916145b80610d4f5750610d4e826114da565b5b9050919050565b610d5f81611544565b610d9e576040517f08c379a0000000000000000000000000000000000000000000000000000000008152600401610d95906123db565b60405180910390fd5b50565b600033905090565b816004600083815260200190815260200160002060006101000a81548173ffffffffffffffffffffffffffffffffffffffff021916908373ffffffffffffffffffffffffffffffffffffffff160217905550808273ffffffffffffffffffffffffffffffffffffffff16610e1c83610652565b73ffffffffffffffffffffffffffffffffffffffff167f8c5be1e5ebec7d5bd14f71427d1e84f3dd0314c0f7b2291e5b200ac8c7c3b92560405160405180910390a45050565b600080610e6e83610652565b90508073ffffffffffffffffffffffffffffffffffffffff168473ffffffffffffffffffffffffffffffffffffffff161480610eb05750610eaf8185610be0565b5b80610eee57508373ffffffffffffffffffffffffffffffffffffffff16610ed684610475565b73ffffffffffffffffffffffffffffffffffffffff16145b91505092915050565b8273ffffffffffffffffffffffffffffffffffffffff16610f1782610652565b73ffffffffffffffffffffffffffffffffffffffff1614610f6d576040517f08c379a0000000000000000000000000000000000000000000000000000000008152600401610f6490612708565b60405180910390fd5b600073ffffffffffffffffffffffffffffffffffffffff168273ffffffffffffffffffffffffffffffffffffffff1603610fdc576040517f08c379a0000000000000000000000000000000000000000000000000000000008152600401610fd39061279a565b60405180910390fd5b610fe98383836001611585565b8273ffffffffffffffffffffffffffffffffffffffff1661100982610652565b73ffffffffffffffffffffffffffffffffffffffff161461105f576040517f08c379a000000000000000000000000000000000000000000000000000000000815260040161105690612708565b60405180910390fd5b6004600082815260200190815260200160002060006101000a81549073ffffffffffffffffffffffffffffffffffffffff02191690556001600360008573ffffffffffffffffffffffffffffffffffffffff1673ffffffffffffffffffffffffffffffffffffffff168152602001908152602001600020600082825403925050819055506001600360008473ffffffffffffffffffffffffffffffffffffffff1673ffffffffffffffffffffffffffffffffffffffff16815260200190815260200160002060008282540192505081905550816002600083815260200190815260200160002060006101000a81548173ffffffffffffffffffffffffffffffffffffffff021916908373ffffffffffffffffffffffffffffffffffffffff160217905550808273ffffffffffffffffffffffffffffffffffffffff168473ffffffffffffffffffffffffffffffffffffffff167fddf252ad1be2c89b69c2b068fc378daa952ba7f163c4a11628f55a4df523b3ef60405160405180910390a46111eb83838360016116f5565b505050565b60006002600083815260200190815260200160002060009054906101000a900473ffffffffffffffffffffffffffffffffffffffff169050919050565b8173ffffffffffffffffffffffffffffffffffffffff168373ffffffffffffffffffffffffffffffffffffffff160361129b576040517f08c379a000000000000000000000000000000000000000000000000000000000815260040161129290612806565b60405180910390fd5b80600560008573ffffffffffffffffffffffffffffffffffffffff1673ffffffffffffffffffffffffffffffffffffffff16815260200190815260200160002060008473ffffffffffffffffffffffffffffffffffffffff1673ffffffffffffffffffffffffffffffffffffffff16815260200190815260200160002060006101000a81548160ff0219169083151502179055508173ffffffffffffffffffffffffffffffffffffffff168373ffffffffffffffffffffffffffffffffffffffff167f17307eab39ab6107e8899845ad3d59bd9653f200f220920489ca2b5937696c318360405161138c9190611b0f565b60405180910390a3505050565b6113a4848484610ef7565b6113b0848484846116fb565b6113ef576040517f08c379a00000000000000000000000000000000000000000000000000000000081526004016113e690612898565b60405180910390fd5b50505050565b606060405180602001604052806000815250905090565b60606000600161141b84611882565b01905060008167ffffffffffffffff81111561143a57611439611e27565b5b6040519080825280601f01601f19166020018201604052801561146c5781602001600182028036833780820191505090505b509050600082602001820190505b6001156114cf578080600190039150507f3031323334353637383961626364656600000000000000000000000000000000600a86061a8153600a85816114c3576114c26128b8565b5b0494506000850361147a575b819350505050919050565b60007f01ffc9a7000000000000000000000000000000000000000000000000000000007bffffffffffffffffffffffffffffffffffffffffffffffffffffffff1916827bffffffffffffffffffffffffffffffffffffffffffffffffffffffff1916149050919050565b60008073ffffffffffffffffffffffffffffffffffffffff16611566836111f0565b73ffffffffffffffffffffffffffffffffffffffff1614159050919050565b611591848484846119d5565b8273ffffffffffffffffffffffffffffffffffffffff168473ffffffffffffffffffffffffffffffffffffffff16141580156116305750600073ffffffffffffffffffffffffffffffffffffffff166006600084815260200190815260200160002060000160009054906101000a900473ffffffffffffffffffffffffffffffffffffffff1673ffffffffffffffffffffffffffffffffffffffff1614155b156116ef5760066000838152602001908152602001600020600080820160006101000a81549073ffffffffffffffffffffffffffffffffffffffff02191690556000820160146101000a81549067ffffffffffffffff021916905560018201600061169b91906119fe565b5050600073ffffffffffffffffffffffffffffffffffffffff16827f73da6478683fff19fdd3559e4a23f4940ec15b3d53c8e6571f97360124ebe2cb60006040516116e69190612978565b60405180910390a35b50505050565b50505050565b600061171c8473ffffffffffffffffffffffffffffffffffffffff166119db565b15611875578373ffffffffffffffffffffffffffffffffffffffff1663150b7a02611745610da1565b8786866040518563ffffffff1660e01b815260040161176794939291906129fb565b6020604051808303816000875af19250505080156117a357506040513d601f19601f820116820180604052508101906117a09190612a5c565b60015b611825573d80600081146117d3576040519150601f19603f3d011682016040523d82523d6000602084013e6117d8565b606091505b50600081510361181d576040517f08c379a000000000000000000000000000000000000000000000000000000000815260040161181490612898565b60405180910390fd5b805181602001fd5b63150b7a0260e01b7bffffffffffffffffffffffffffffffffffffffffffffffffffffffff1916817bffffffffffffffffffffffffffffffffffffffffffffffffffffffff19161491505061187a565b600190505b949350505050565b600080600090507a184f03e93ff9f4daa797ed6e38ed64bf6a1f01000000000000000083106118e0577a184f03e93ff9f4daa797ed6e38ed64bf6a1f01000000000000000083816118d6576118d56128b8565b5b0492506040810190505b6d04ee2d6d415b85acef8100000000831061191d576d04ee2d6d415b85acef81000000008381611913576119126128b8565b5b0492506020810190505b662386f26fc10000831061194c57662386f26fc100008381611942576119416128b8565b5b0492506010810190505b6305f5e1008310611975576305f5e100838161196b5761196a6128b8565b5b0492506008810190505b612710831061199a5761271083816119905761198f6128b8565b5b0492506004810190505b606483106119bd57606483816119b3576119b26128b8565b5b0492506002810190505b600a83106119cc576001810190505b80915050919050565b50505050565b6000808273ffffffffffffffffffffffffffffffffffffffff163b119050919050565b508054611a0a906121a8565b6000825580601f10611a1c5750611a3b565b601f016020900490600052602060002090810190611a3a9190611a3e565b5b50565b5b80821115611a57576000816000905550600101611a3f565b5090565b6000604051905090565b600080fd5b600080fd5b60007fffffffff0000000000000000000000000000000000000000000000000000000082169050919050565b611aa481611a6f565b8114611aaf57600080fd5b50565b600081359050611ac181611a9b565b92915050565b600060208284031215611add57611adc611a65565b5b6000611aeb84828501611ab2565b91505092915050565b60008115159050919050565b611b0981611af4565b82525050565b6000602082019050611b246000830184611b00565b92915050565b600081519050919050565b600082825260208201905092915050565b60005b83811015611b64578082015181840152602081019050611b49565b60008484015250505050565b6000601f19601f8301169050919050565b6000611b8c82611b2a565b611b968185611b35565b9350611ba6818560208601611b46565b611baf81611b70565b840191505092915050565b60006020820190508181036000830152611bd48184611b81565b905092915050565b6000819050919050565b611bef81611bdc565b8114611bfa57600080fd5b50565b600081359050611c0c81611be6565b92915050565b600060208284031215611c2857611c27611a65565b5b6000611c3684828501611bfd565b91505092915050565b600073ffffffffffffffffffffffffffffffffffffffff82169050919050565b6000611c6a82611c3f565b9050919050565b611c7a81611c5f565b82525050565b6000602082019050611c956000830184611c71565b92915050565b611ca481611c5f565b8114611caf57600080fd5b50565b600081359050611cc181611c9b565b92915050565b60008060408385031215611cde57611cdd611a65565b5b6000611cec85828601611cb2565b9250506020611cfd85828601611bfd565b9150509250929050565b600080600060608486031215611d2057611d1f611a65565b5b6000611d2e86828701611cb2565b9350506020611d3f86828701611cb2565b9250506040611d5086828701611bfd565b9150509250925092565b600060208284031215611d7057611d6f611a65565b5b6000611d7e84828501611cb2565b91505092915050565b611d9081611bdc565b82525050565b6000602082019050611dab6000830184611d87565b92915050565b611dba81611af4565b8114611dc557600080fd5b50565b600081359050611dd781611db1565b92915050565b60008060408385031215611df457611df3611a65565b5b6000611e0285828601611cb2565b9250506020611e1385828601611dc8565b9150509250929050565b600080fd5b600080fd5b7f4e487b7100000000000000000000000000000000000000000000000000000000600052604160045260246000fd5b611e5f82611b70565b810181811067ffffffffffffffff82111715611e7e57611e7d611e27565b5b80604052505050565b6000611e91611a5b565b9050611e9d8282611e56565b919050565b600067ffffffffffffffff821115611ebd57611ebc611e27565b5b611ec682611b70565b9050602081019050919050565b82818337600083830152505050565b6000611ef5611ef084611ea2565b611e87565b905082815260208101848484011115611f1157611f10611e22565b5b611f1c848285611ed3565b509392505050565b600082601f830112611f3957611f38611e1d565b5b8135611f49848260208601611ee2565b91505092915050565b60008060008060808587031215611f6c57611f6b611a65565b5b6000611f7a87828801611cb2565b9450506020611f8b87828801611cb2565b9350506040611f9c87828801611bfd565b925050606085013567ffffffffffffffff811115611fbd57611fbc611a6a565b5b611fc987828801611f24565b91505092959194509250565b600067ffffffffffffffff82169050919050565b611ff281611fd5565b8114611ffd57600080fd5b50565b60008135905061200f81611fe9565b92915050565b600067ffffffffffffffff8211156120305761202f611e27565b5b61203982611b70565b9050602081019050919050565b600061205961205484612015565b611e87565b90508281526020810184848401111561207557612074611e22565b5b612080848285611ed3565b509392505050565b600082601f83011261209d5761209c611e1d565b5b81356120ad848260208601612046565b91505092915050565b600080600080608085870312156120d0576120cf611a65565b5b60006120de87828801611bfd565b94505060206120ef87828801611cb2565b935050604061210087828801612000565b925050606085013567ffffffffffffffff81111561212157612120611a6a565b5b61212d87828801612088565b91505092959194509250565b600080604083850312156121505761214f611a65565b5b600061215e85828601611cb2565b925050602061216f85828601611cb2565b9150509250929050565b7f4e487b7100000000000000000000000000000000000000000000000000000000600052602260045260246000fd5b600060028204905060018216806121c057607f821691505b6020821081036121d3576121d2612179565b5b50919050565b7f4552433732313a20617070726f76616c20746f2063757272656e74206f776e6560008201527f7200000000000000000000000000000000000000000000000000000000000000602082015250565b6000612235602183611b35565b9150612240826121d9565b604082019050919050565b6000602082019050818103600083015261226481612228565b9050919050565b7f4552433732313a20617070726f76652063616c6c6572206973206e6f7420746f60008201527f6b656e206f776e6572206f7220617070726f76656420666f7220616c6c000000602082015250565b60006122c7603d83611b35565b91506122d28261226b565b604082019050919050565b600060208201905081810360008301526122f6816122ba565b9050919050565b7f4552433732313a2063616c6c6572206973206e6f7420746f6b656e206f776e6560008201527f72206f7220617070726f76656400000000000000000000000000000000000000602082015250565b6000612359602d83611b35565b9150612364826122fd565b604082019050919050565b600060208201905081810360008301526123888161234c565b9050919050565b7f4552433732313a20696e76616c696420746f6b656e2049440000000000000000600082015250565b60006123c5601883611b35565b91506123d08261238f565b602082019050919050565b600060208201905081810360008301526123f4816123b8565b9050919050565b7f4552433732313a2061646472657373207a65726f206973206e6f74206120766160008201527f6c6964206f776e65720000000000000000000000000000000000000000000000602082015250565b6000612457602983611b35565b9150612462826123fb565b604082019050919050565b600060208201905081810360008301526124868161244a565b9050919050565b600081905092915050565b60006124a382611b2a565b6124ad818561248d565b93506124bd818560208601611b46565b80840191505092915050565b60006124d58285612498565b91506124e18284612498565b91508190509392505050565b7f4552433732313a207472616e736665722063616c6c6572206973206e6f74206f60008201527f776e6572206e6f7220617070726f766564000000000000000000000000000000602082015250565b6000612549603183611b35565b9150612554826124ed565b604082019050919050565b600060208201905081810360008301526125788161253c565b9050919050565b7f457870697265733c63757272656e742074696d65000000000000000000000000600082015250565b60006125b5601483611b35565b91506125c08261257f565b602082019050919050565b600060208201905081810360008301526125e4816125a8565b9050919050565b7f416c72656164792072656e74656420746f20736f6d656f6e6500000000000000600082015250565b6000612621601983611b35565b915061262c826125eb565b602082019050919050565b6000602082019050818103600083015261265081612614565b9050919050565b61266081611fd5565b82525050565b600060408201905061267b6000830185612657565b818103602083015261268d8184611b81565b90509392505050565b7f4552433732313a207472616e736665722066726f6d20696e636f72726563742060008201527f6f776e6572000000000000000000000000000000000000000000000000000000602082015250565b60006126f2602583611b35565b91506126fd82612696565b604082019050919050565b60006020820190508181036000830152612721816126e5565b9050919050565b7f4552433732313a207472616e7366657220746f20746865207a65726f2061646460008201527f7265737300000000000000000000000000000000000000000000000000000000602082015250565b6000612784602483611b35565b915061278f82612728565b604082019050919050565b600060208201905081810360008301526127b381612777565b9050919050565b7f4552433732313a20617070726f766520746f2063616c6c657200000000000000600082015250565b60006127f0601983611b35565b91506127fb826127ba565b602082019050919050565b6000602082019050818103600083015261281f816127e3565b9050919050565b7f4552433732313a207472616e7366657220746f206e6f6e20455243373231526560008201527f63656976657220696d706c656d656e7465720000000000000000000000000000602082015250565b6000612882603283611b35565b915061288d82612826565b604082019050919050565b600060208201905081810360008301526128b181612875565b9050919050565b7f4e487b7100000000000000000000000000000000000000000000000000000000600052601260045260246000fd5b6000819050919050565b6000819050919050565b600061291661291161290c846128e7565b6128f1565b611fd5565b9050919050565b612926816128fb565b82525050565b7f3030000000000000000000000000000000000000000000000000000000000000600082015250565b6000612962600283611b35565b915061296d8261292c565b602082019050919050565b600060408201905061298d600083018461291d565b818103602083015261299e81612955565b905092915050565b600081519050919050565b600082825260208201905092915050565b60006129cd826129a6565b6129d781856129b1565b93506129e7818560208601611b46565b6129f081611b70565b840191505092915050565b6000608082019050612a106000830187611c71565b612a1d6020830186611c71565b612a2a6040830185611d87565b8181036060830152612a3c81846129c2565b905095945050505050565b600081519050612a5681611a9b565b92915050565b600060208284031215612a7257612a71611a65565b5b6000612a8084828501612a47565b9150509291505056fea26469706673582212201e47ac81fb1c9e41cccb4d40d50988ee505144e61cc91fba2e1848c4b234caa364736f6c63430008130033",
  "linkReferences": {},
  "deployedLinkReferences": {}
}